{
  "contractName": "loteria",
  "abi": [
    {
      "inputs": [],
      "stateMutability": "nonpayable",
      "type": "constructor"
    },
    {
      "anonymous": false,
      "inputs": [
        {
          "indexed": true,
          "internalType": "address",
          "name": "owner",
          "type": "address"
        },
        {
          "indexed": true,
          "internalType": "address",
          "name": "spender",
          "type": "address"
        },
        {
          "indexed": false,
          "internalType": "uint256",
          "name": "value",
          "type": "uint256"
        }
      ],
      "name": "Approval",
      "type": "event"
    },
    {
      "anonymous": false,
      "inputs": [
        {
          "indexed": true,
          "internalType": "address",
          "name": "previousOwner",
          "type": "address"
        },
        {
          "indexed": true,
          "internalType": "address",
          "name": "newOwner",
          "type": "address"
        }
      ],
      "name": "OwnershipTransferred",
      "type": "event"
    },
    {
      "anonymous": false,
      "inputs": [
        {
          "indexed": true,
          "internalType": "address",
          "name": "from",
          "type": "address"
        },
        {
          "indexed": true,
          "internalType": "address",
          "name": "to",
          "type": "address"
        },
        {
          "indexed": false,
          "internalType": "uint256",
          "name": "value",
          "type": "uint256"
        }
      ],
      "name": "Transfer",
      "type": "event"
    },
    {
      "inputs": [
        {
          "internalType": "address",
          "name": "owner",
          "type": "address"
        },
        {
          "internalType": "address",
          "name": "spender",
          "type": "address"
        }
      ],
      "name": "allowance",
      "outputs": [
        {
          "internalType": "uint256",
          "name": "",
          "type": "uint256"
        }
      ],
      "stateMutability": "view",
      "type": "function",
      "constant": true
    },
    {
      "inputs": [
        {
          "internalType": "address",
          "name": "spender",
          "type": "address"
        },
        {
          "internalType": "uint256",
          "name": "amount",
          "type": "uint256"
        }
      ],
      "name": "approve",
      "outputs": [
        {
          "internalType": "bool",
          "name": "",
          "type": "bool"
        }
      ],
      "stateMutability": "nonpayable",
      "type": "function"
    },
    {
      "inputs": [
        {
          "internalType": "address",
          "name": "account",
          "type": "address"
        }
      ],
      "name": "balanceOf",
      "outputs": [
        {
          "internalType": "uint256",
          "name": "",
          "type": "uint256"
        }
      ],
      "stateMutability": "view",
      "type": "function",
      "constant": true
    },
    {
      "inputs": [],
      "name": "decimals",
      "outputs": [
        {
          "internalType": "uint8",
          "name": "",
          "type": "uint8"
        }
      ],
      "stateMutability": "view",
      "type": "function",
      "constant": true
    },
    {
      "inputs": [
        {
          "internalType": "address",
          "name": "spender",
          "type": "address"
        },
        {
          "internalType": "uint256",
          "name": "subtractedValue",
          "type": "uint256"
        }
      ],
      "name": "decreaseAllowance",
      "outputs": [
        {
          "internalType": "bool",
          "name": "",
          "type": "bool"
        }
      ],
      "stateMutability": "nonpayable",
      "type": "function"
    },
    {
      "inputs": [],
      "name": "ganador",
      "outputs": [
        {
          "internalType": "address",
          "name": "",
          "type": "address"
        }
      ],
      "stateMutability": "view",
      "type": "function",
      "constant": true
    },
    {
      "inputs": [
        {
          "internalType": "address",
          "name": "spender",
          "type": "address"
        },
        {
          "internalType": "uint256",
          "name": "addedValue",
          "type": "uint256"
        }
      ],
      "name": "increaseAllowance",
      "outputs": [
        {
          "internalType": "bool",
          "name": "",
          "type": "bool"
        }
      ],
      "stateMutability": "nonpayable",
      "type": "function"
    },
    {
      "inputs": [],
      "name": "name",
      "outputs": [
        {
          "internalType": "string",
          "name": "",
          "type": "string"
        }
      ],
      "stateMutability": "view",
      "type": "function",
      "constant": true
    },
    {
      "inputs": [],
      "name": "nft",
      "outputs": [
        {
          "internalType": "address",
          "name": "",
          "type": "address"
        }
      ],
      "stateMutability": "view",
      "type": "function",
      "constant": true
    },
    {
      "inputs": [],
      "name": "owner",
      "outputs": [
        {
          "internalType": "address",
          "name": "",
          "type": "address"
        }
      ],
      "stateMutability": "view",
      "type": "function",
      "constant": true
    },
    {
      "inputs": [],
      "name": "precioBoleto",
      "outputs": [
        {
          "internalType": "uint256",
          "name": "",
          "type": "uint256"
        }
      ],
      "stateMutability": "view",
      "type": "function",
      "constant": true
    },
    {
      "inputs": [],
      "name": "renounceOwnership",
      "outputs": [],
      "stateMutability": "nonpayable",
      "type": "function"
    },
    {
      "inputs": [],
      "name": "symbol",
      "outputs": [
        {
          "internalType": "string",
          "name": "",
          "type": "string"
        }
      ],
      "stateMutability": "view",
      "type": "function",
      "constant": true
    },
    {
      "inputs": [],
      "name": "totalSupply",
      "outputs": [
        {
          "internalType": "uint256",
          "name": "",
          "type": "uint256"
        }
      ],
      "stateMutability": "view",
      "type": "function",
      "constant": true
    },
    {
      "inputs": [
        {
          "internalType": "address",
          "name": "to",
          "type": "address"
        },
        {
          "internalType": "uint256",
          "name": "amount",
          "type": "uint256"
        }
      ],
      "name": "transfer",
      "outputs": [
        {
          "internalType": "bool",
          "name": "",
          "type": "bool"
        }
      ],
      "stateMutability": "nonpayable",
      "type": "function"
    },
    {
      "inputs": [
        {
          "internalType": "address",
          "name": "from",
          "type": "address"
        },
        {
          "internalType": "address",
          "name": "to",
          "type": "address"
        },
        {
          "internalType": "uint256",
          "name": "amount",
          "type": "uint256"
        }
      ],
      "name": "transferFrom",
      "outputs": [
        {
          "internalType": "bool",
          "name": "",
          "type": "bool"
        }
      ],
      "stateMutability": "nonpayable",
      "type": "function"
    },
    {
      "inputs": [
        {
          "internalType": "address",
          "name": "newOwner",
          "type": "address"
        }
      ],
      "name": "transferOwnership",
      "outputs": [],
      "stateMutability": "nonpayable",
      "type": "function"
    },
    {
      "inputs": [
        {
          "internalType": "address",
          "name": "",
          "type": "address"
        }
      ],
      "name": "usuario_contract",
      "outputs": [
        {
          "internalType": "address",
          "name": "",
          "type": "address"
        }
      ],
      "stateMutability": "view",
      "type": "function",
      "constant": true
    },
    {
      "inputs": [
        {
          "internalType": "uint256",
          "name": "_numTokens",
          "type": "uint256"
        }
      ],
      "name": "precioTokens",
      "outputs": [
        {
          "internalType": "uint256",
          "name": "",
          "type": "uint256"
        }
      ],
      "stateMutability": "view",
      "type": "function",
      "constant": true
    },
    {
      "inputs": [],
      "name": "getBNBPrice",
      "outputs": [
        {
          "internalType": "int256",
          "name": "",
          "type": "int256"
        }
      ],
      "stateMutability": "view",
      "type": "function",
      "constant": true
    },
    {
      "inputs": [
        {
          "internalType": "address",
          "name": "_account",
          "type": "address"
        }
      ],
      "name": "balanceTokens",
      "outputs": [
        {
          "internalType": "uint256",
          "name": "",
          "type": "uint256"
        }
      ],
      "stateMutability": "view",
      "type": "function",
      "constant": true
    },
    {
      "inputs": [],
      "name": "balanceTokensSC",
      "outputs": [
        {
          "internalType": "uint256",
          "name": "",
          "type": "uint256"
        }
      ],
      "stateMutability": "view",
      "type": "function",
      "constant": true
    },
    {
      "inputs": [],
      "name": "balanceEthersSC",
      "outputs": [
        {
          "internalType": "uint256",
          "name": "",
          "type": "uint256"
        }
      ],
      "stateMutability": "view",
      "type": "function",
      "constant": true
    },
    {
      "inputs": [
        {
          "internalType": "uint256",
          "name": "_cantidad",
          "type": "uint256"
        }
      ],
      "name": "mint",
      "outputs": [],
      "stateMutability": "nonpayable",
      "type": "function"
    },
    {
      "inputs": [
        {
          "internalType": "address",
          "name": "_account",
          "type": "address"
        }
      ],
      "name": "usersInfo",
      "outputs": [
        {
          "internalType": "address",
          "name": "",
          "type": "address"
        }
      ],
      "stateMutability": "view",
      "type": "function",
      "constant": true
    },
    {
      "inputs": [
        {
          "internalType": "uint256",
          "name": "_numTokens",
          "type": "uint256"
        }
      ],
      "name": "compraTokens",
      "outputs": [],
      "stateMutability": "payable",
      "type": "function",
      "payable": true
    },
    {
      "inputs": [
        {
          "internalType": "uint256",
          "name": "_numTokens",
          "type": "uint256"
        }
      ],
      "name": "devolverTokens",
      "outputs": [],
      "stateMutability": "payable",
      "type": "function",
      "payable": true
    },
    {
      "inputs": [
        {
          "internalType": "uint256",
          "name": "_numBoletos",
          "type": "uint256"
        }
      ],
      "name": "compraBoleto",
      "outputs": [],
      "stateMutability": "nonpayable",
      "type": "function"
    },
    {
      "inputs": [
        {
          "internalType": "address",
          "name": "_propietario",
          "type": "address"
        }
      ],
      "name": "tusBoletos",
      "outputs": [
        {
          "internalType": "uint256[]",
          "name": "",
          "type": "uint256[]"
        }
      ],
      "stateMutability": "view",
      "type": "function",
      "constant": true
    },
    {
      "inputs": [],
      "name": "generarGanador",
      "outputs": [],
      "stateMutability": "nonpayable",
      "type": "function"
    }
  ],
  "bytecode": "0x60806040526001600a556000600d553480156200001b57600080fd5b506040518060400160405280601081526020017f4c6f747465727920506c757320424e42000000000000000000000000000000008152506040518060400160405280600481526020017f4c545042000000000000000000000000000000000000000000000000000000008152508160039080519060200190620000a092919062000409565b508060049080519060200190620000b992919062000409565b505050620000dc620000d0620001b860201b60201c565b620001c060201b60201c565b620000f130620f42406200028660201b60201c565b604051620000ff906200049a565b604051809103906000f0801580156200011c573d6000803e3d6000fd5b50600660006101000a81548173ffffffffffffffffffffffffffffffffffffffff021916908373ffffffffffffffffffffffffffffffffffffffff160217905550732514895c72f50d8bd4b4f9b1110f0d6bd2c97526600760006101000a81548173ffffffffffffffffffffffffffffffffffffffff021916908373ffffffffffffffffffffffffffffffffffffffff16021790555062000673565b600033905090565b6000600560009054906101000a900473ffffffffffffffffffffffffffffffffffffffff16905081600560006101000a81548173ffffffffffffffffffffffffffffffffffffffff021916908373ffffffffffffffffffffffffffffffffffffffff1602179055508173ffffffffffffffffffffffffffffffffffffffff168173ffffffffffffffffffffffffffffffffffffffff167f8be0079c531659141344cd1fd0a4f28419497f9722a3daafe3b4186f6b6457e060405160405180910390a35050565b600073ffffffffffffffffffffffffffffffffffffffff168273ffffffffffffffffffffffffffffffffffffffff161415620002f9576040517f08c379a0000000000000000000000000000000000000000000000000000000008152600401620002f090620004ff565b60405180910390fd5b6200030d60008383620003ff60201b60201c565b80600260008282546200032191906200054f565b92505081905550806000808473ffffffffffffffffffffffffffffffffffffffff1673ffffffffffffffffffffffffffffffffffffffff16815260200190815260200160002060008282546200037891906200054f565b925050819055508173ffffffffffffffffffffffffffffffffffffffff16600073ffffffffffffffffffffffffffffffffffffffff167fddf252ad1be2c89b69c2b068fc378daa952ba7f163c4a11628f55a4df523b3ef83604051620003df919062000521565b60405180910390a3620003fb600083836200040460201b60201c565b5050565b505050565b505050565b8280546200041790620005b6565b90600052602060002090601f0160209004810192826200043b576000855562000487565b82601f106200045657805160ff191683800117855562000487565b8280016001018555821562000487579182015b828111156200048657825182559160200191906001019062000469565b5b509050620004969190620004a8565b5090565b612b8c80620041f783390190565b5b80821115620004c3576000816000905550600101620004a9565b5090565b6000620004d6601f836200053e565b9150620004e3826200064a565b602082019050919050565b620004f981620005ac565b82525050565b600060208201905081810360008301526200051a81620004c7565b9050919050565b6000602082019050620005386000830184620004ee565b92915050565b600082825260208201905092915050565b60006200055c82620005ac565b91506200056983620005ac565b9250827fffffffffffffffffffffffffffffffffffffffffffffffffffffffffffffffff03821115620005a157620005a0620005ec565b5b828201905092915050565b6000819050919050565b60006002820490506001821680620005cf57607f821691505b60208210811415620005e657620005e56200061b565b5b50919050565b7f4e487b7100000000000000000000000000000000000000000000000000000000600052601160045260246000fd5b7f4e487b7100000000000000000000000000000000000000000000000000000000600052602260045260246000fd5b7f45524332303a206d696e7420746f20746865207a65726f206164647265737300600082015250565b613b7480620006836000396000f3fe608060405260043610620001fa5760003560e01c80639114bde8116200010f578063b934c38411620000a3578063ee5ade83116200006d578063ee5ade83146200076b578063f2220c9e146200079b578063f2fde38b14620007cb578063f9b4527a14620007f957620001fa565b8063b934c38414620006a9578063c29dd7c914620006d9578063dd62ed3e14620006f9578063e51c9bdf146200073d57620001fa565b806395d89b4111620000e557806395d89b4114620005c3578063a0712d6814620005f3578063a457c2d71462000621578063a9059cbb146200066557620001fa565b80639114bde8146200051f578063912cf304146200054f57806392ef10d8146200059357620001fa565b806339509351116200019357806370a08231116200015d57806370a082311462000477578063715018a614620004bb57806389e25c2814620004d55780638da5cb5b14620004ef57620001fa565b806339509351146200037b57806347ccca0214620003bf5780635d0eaaaf14620003ef5780635f375c6c146200043357620001fa565b806323acfa8111620001d557806323acfa8114620002a357806323b872dd14620002e75780632e95161c146200032b578063313ce567146200034b57620001fa565b806306fdde0314620001ff578063095ea7b3146200022f57806318160ddd1462000273575b600080fd5b3480156200020c57600080fd5b50620002176200083d565b60405162000226919062002909565b60405180910390f35b3480156200023c57600080fd5b506200025b600480360381019062000255919062002304565b620008d7565b6040516200026a9190620028cf565b60405180910390f35b3480156200028057600080fd5b506200028b620008fe565b6040516200029a919062002b4d565b60405180910390f35b348015620002b057600080fd5b50620002cf6004803603810190620002c9919062002241565b62000908565b604051620002de919062002824565b60405180910390f35b348015620002f457600080fd5b506200031360048036038101906200030d9190620022ae565b6200093b565b604051620003229190620028cf565b60405180910390f35b62000349600480360381019062000343919062002345565b62000970565b005b3480156200035857600080fd5b506200036362000a68565b60405162000372919062002b6a565b60405180910390f35b3480156200038857600080fd5b50620003a76004803603810190620003a1919062002304565b62000a71565b604051620003b69190620028cf565b60405180910390f35b348015620003cc57600080fd5b50620003d762000b21565b604051620003e6919062002824565b60405180910390f35b348015620003fc57600080fd5b506200041b600480360381019062000415919062002241565b62000b47565b6040516200042a919062002824565b60405180910390f35b3480156200044057600080fd5b506200045f600480360381019062000459919062002345565b62000bb0565b6040516200046e919062002b4d565b60405180910390f35b3480156200048457600080fd5b50620004a360048036038101906200049d919062002241565b62000bf0565b604051620004b2919062002b4d565b60405180910390f35b348015620004c857600080fd5b50620004d362000c38565b005b348015620004e257600080fd5b50620004ed62000cc9565b005b348015620004fc57600080fd5b506200050762000f8e565b60405162000516919062002824565b60405180910390f35b3480156200052c57600080fd5b506200053762000fb8565b60405162000546919062002824565b60405180910390f35b3480156200055c57600080fd5b506200057b600480360381019062000575919062002241565b62000fde565b6040516200058a9190620028ab565b60405180910390f35b348015620005a057600080fd5b50620005ab62001077565b604051620005ba919062002b4d565b60405180910390f35b348015620005d057600080fd5b50620005db62001089565b604051620005ea919062002909565b60405180910390f35b3480156200060057600080fd5b506200061f600480360381019062000619919062002345565b62001123565b005b3480156200062e57600080fd5b506200064d600480360381019062000647919062002304565b620011b5565b6040516200065c9190620028cf565b60405180910390f35b3480156200067257600080fd5b506200069160048036038101906200068b919062002304565b620012a6565b604051620006a09190620028cf565b60405180910390f35b348015620006b657600080fd5b50620006c1620012cd565b604051620006d0919062002b4d565b60405180910390f35b620006f76004803603810190620006f1919062002345565b620012d5565b005b3480156200070657600080fd5b506200072560048036038101906200071f91906200226d565b6200148b565b60405162000734919062002b4d565b60405180910390f35b3480156200074a57600080fd5b5062000769600480360381019062000763919062002345565b62001512565b005b3480156200077857600080fd5b5062000783620017bb565b60405162000792919062002b4d565b60405180910390f35b348015620007a857600080fd5b50620007b3620017c1565b604051620007c29190620028ec565b60405180910390f35b348015620007d857600080fd5b50620007f76004803603810190620007f1919062002241565b62001886565b005b3480156200080657600080fd5b506200082560048036038101906200081f919062002241565b6200198a565b60405162000834919062002b4d565b60405180910390f35b6060600380546200084e9062002e2e565b80601f01602080910402602001604051908101604052809291908181526020018280546200087c9062002e2e565b8015620008cd5780601f10620008a157610100808354040283529160200191620008cd565b820191906000526020600020905b815481529060010190602001808311620008af57829003601f168201915b5050505050905090565b600080620008e46200199e565b9050620008f3818585620019a6565b600191505092915050565b6000600254905090565b60096020528060005260406000206000915054906101000a900473ffffffffffffffffffffffffffffffffffffffff1681565b600080620009486200199e565b90506200095785828562001b79565b6200096485858562001c0d565b60019150509392505050565b60008111620009b6576040517f08c379a0000000000000000000000000000000000000000000000000000000008152600401620009ad90620029d7565b60405180910390fd5b620009c1336200198a565b81111562000a06576040517f08c379a0000000000000000000000000000000000000000000000000000000008152600401620009fd9062002ae7565b60405180910390fd5b62000a1333308362001c0d565b3373ffffffffffffffffffffffffffffffffffffffff166108fc62000a388362000bb0565b9081150290604051600060405180830381858888f1935050505015801562000a64573d6000803e3d6000fd5b5050565b60006012905090565b60008062000a7e6200199e565b905062000b16818585600160008673ffffffffffffffffffffffffffffffffffffffff1673ffffffffffffffffffffffffffffffffffffffff16815260200190815260200160002060008973ffffffffffffffffffffffffffffffffffffffff1673ffffffffffffffffffffffffffffffffffffffff1681526020019081526020016000205462000b10919062002bdc565b620019a6565b600191505092915050565b600660009054906101000a900473ffffffffffffffffffffffffffffffffffffffff1681565b6000600960008373ffffffffffffffffffffffffffffffffffffffff1673ffffffffffffffffffffffffffffffffffffffff16815260200190815260200160002060009054906101000a900473ffffffffffffffffffffffffffffffffffffffff169050919050565b600080670de0b6b3a76400009050600062000bca620017c1565b9050808262000bda919062002cad565b8462000be7919062002ce5565b92505050919050565b60008060008373ffffffffffffffffffffffffffffffffffffffff1673ffffffffffffffffffffffffffffffffffffffff168152602001908152602001600020549050919050565b62000c426200199e565b73ffffffffffffffffffffffffffffffffffffffff1662000c6262000f8e565b73ffffffffffffffffffffffffffffffffffffffff161462000cbb576040517f08c379a000000000000000000000000000000000000000000000000000000000815260040162000cb29062002a5f565b60405180910390fd5b62000cc7600062001e9f565b565b62000cd36200199e565b73ffffffffffffffffffffffffffffffffffffffff1662000cf362000f8e565b73ffffffffffffffffffffffffffffffffffffffff161462000d4c576040517f08c379a000000000000000000000000000000000000000000000000000000000815260040162000d439062002a5f565b60405180910390fd5b6000600e8054905090506000811162000d9c576040517f08c379a000000000000000000000000000000000000000000000000000000000815260040162000d939062002a1b565b60405180910390fd5b6000814260405160200162000db29190620027c4565b6040516020818303038152906040528051906020012060001c62000dd7919062002ee4565b90506000600e828154811062000e16577f4e487b7100000000000000000000000000000000000000000000000000000000600052603260045260246000fd5b90600052602060002001549050600c600082815260200190815260200160002060009054906101000a900473ffffffffffffffffffffffffffffffffffffffff16600860006101000a81548173ffffffffffffffffffffffffffffffffffffffff021916908373ffffffffffffffffffffffffffffffffffffffff160217905550600860009054906101000a900473ffffffffffffffffffffffffffffffffffffffff1673ffffffffffffffffffffffffffffffffffffffff166108fc6064605a4762000ee4919062002ce5565b62000ef0919062002cad565b9081150290604051600060405180830381858888f1935050505015801562000f1c573d6000803e3d6000fd5b5062000f2762000f8e565b73ffffffffffffffffffffffffffffffffffffffff166108fc6064804762000f50919062002ce5565b62000f5c919062002cad565b9081150290604051600060405180830381858888f1935050505015801562000f88573d6000803e3d6000fd5b50505050565b6000600560009054906101000a900473ffffffffffffffffffffffffffffffffffffffff16905090565b600860009054906101000a900473ffffffffffffffffffffffffffffffffffffffff1681565b6060600b60008373ffffffffffffffffffffffffffffffffffffffff1673ffffffffffffffffffffffffffffffffffffffff1681526020019081526020016000208054806020026020016040519081016040528092919081815260200182805480156200106b57602002820191906000526020600020905b81548152602001906001019080831162001056575b50505050509050919050565b6000620010843062000bf0565b905090565b6060600480546200109a9062002e2e565b80601f0160208091040260200160405190810160405280929190818152602001828054620010c89062002e2e565b8015620011195780601f10620010ed5761010080835404028352916020019162001119565b820191906000526020600020905b815481529060010190602001808311620010fb57829003601f168201915b5050505050905090565b6200112d6200199e565b73ffffffffffffffffffffffffffffffffffffffff166200114d62000f8e565b73ffffffffffffffffffffffffffffffffffffffff1614620011a6576040517f08c379a00000000000000000000000000000000000000000000000000000000081526004016200119d9062002a5f565b60405180910390fd5b620011b2308262001f65565b50565b600080620011c26200199e565b90506000600160008373ffffffffffffffffffffffffffffffffffffffff1673ffffffffffffffffffffffffffffffffffffffff16815260200190815260200160002060008673ffffffffffffffffffffffffffffffffffffffff1673ffffffffffffffffffffffffffffffffffffffff168152602001908152602001600020549050838110156200128b576040517f08c379a0000000000000000000000000000000000000000000000000000000008152600401620012829062002b09565b60405180910390fd5b6200129a8286868403620019a6565b60019250505092915050565b600080620012b36200199e565b9050620012c281858562001c0d565b600191505092915050565b600047905090565b600073ffffffffffffffffffffffffffffffffffffffff16600960003373ffffffffffffffffffffffffffffffffffffffff1673ffffffffffffffffffffffffffffffffffffffff16815260200190815260200160002060009054906101000a900473ffffffffffffffffffffffffffffffffffffffff1673ffffffffffffffffffffffffffffffffffffffff161415620013755762001374620020d2565b5b6000620013828262000bb0565b905080341015620013ca576040517f08c379a0000000000000000000000000000000000000000000000000000000008152600401620013c19062002ac5565b60405180910390fd5b6000620013d662001077565b9050808311156200141e576040517f08c379a0000000000000000000000000000000000000000000000000000000008152600401620014159062002a3d565b60405180910390fd5b600082346200142e919062002d46565b90503373ffffffffffffffffffffffffffffffffffffffff166108fc829081150290604051600060405180830381858888f1935050505015801562001477573d6000803e3d6000fd5b506200148530338662001c0d565b50505050565b6000600160008473ffffffffffffffffffffffffffffffffffffffff1673ffffffffffffffffffffffffffffffffffffffff16815260200190815260200160002060008373ffffffffffffffffffffffffffffffffffffffff1673ffffffffffffffffffffffffffffffffffffffff16815260200190815260200160002054905092915050565b6000600a548262001524919062002ce5565b905062001531336200198a565b81111562001576576040517f08c379a00000000000000000000000000000000000000000000000000000000081526004016200156d90620029b5565b60405180910390fd5b6200158333308362001c0d565b60005b82811015620017b65760006127104233600d54604051602001620015ad93929190620027e1565b6040516020818303038152906040528051906020012060001c620015d2919062002ee4565b9050600d6000815480929190620015e99062002e64565b9190505550600b60003373ffffffffffffffffffffffffffffffffffffffff1673ffffffffffffffffffffffffffffffffffffffff168152602001908152602001600020819080600181540180825580915050600190039060005260206000200160009091909190915055600e81908060018154018082558091505060019003906000526020600020016000909190919091505533600c600083815260200190815260200160002060006101000a81548173ffffffffffffffffffffffffffffffffffffffff021916908373ffffffffffffffffffffffffffffffffffffffff160217905550600960003373ffffffffffffffffffffffffffffffffffffffff1673ffffffffffffffffffffffffffffffffffffffff16815260200190815260200160002060009054906101000a900473ffffffffffffffffffffffffffffffffffffffff1673ffffffffffffffffffffffffffffffffffffffff1663120e852333836040518363ffffffff1660e01b81526004016200176b9291906200287e565b600060405180830381600087803b1580156200178657600080fd5b505af11580156200179b573d6000803e3d6000fd5b50505050508080620017ad9062002e64565b91505062001586565b505050565b600a5481565b600080600760009054906101000a900473ffffffffffffffffffffffffffffffffffffffff1673ffffffffffffffffffffffffffffffffffffffff1663feaf968c6040518163ffffffff1660e01b815260040160a06040518083038186803b1580156200182d57600080fd5b505afa15801562001842573d6000803e3d6000fd5b505050506040513d601f19601f8201168201806040525081019062001868919062002371565b5050509150506305f5e1008162001880919062002c39565b91505090565b620018906200199e565b73ffffffffffffffffffffffffffffffffffffffff16620018b062000f8e565b73ffffffffffffffffffffffffffffffffffffffff161462001909576040517f08c379a0000000000000000000000000000000000000000000000000000000008152600401620019009062002a5f565b60405180910390fd5b600073ffffffffffffffffffffffffffffffffffffffff168173ffffffffffffffffffffffffffffffffffffffff1614156200197c576040517f08c379a000000000000000000000000000000000000000000000000000000000815260040162001973906200294f565b60405180910390fd5b620019878162001e9f565b50565b6000620019978262000bf0565b9050919050565b600033905090565b600073ffffffffffffffffffffffffffffffffffffffff168373ffffffffffffffffffffffffffffffffffffffff16141562001a19576040517f08c379a000000000000000000000000000000000000000000000000000000000815260040162001a109062002aa3565b60405180910390fd5b600073ffffffffffffffffffffffffffffffffffffffff168273ffffffffffffffffffffffffffffffffffffffff16141562001a8c576040517f08c379a000000000000000000000000000000000000000000000000000000000815260040162001a839062002971565b60405180910390fd5b80600160008573ffffffffffffffffffffffffffffffffffffffff1673ffffffffffffffffffffffffffffffffffffffff16815260200190815260200160002060008473ffffffffffffffffffffffffffffffffffffffff1673ffffffffffffffffffffffffffffffffffffffff168152602001908152602001600020819055508173ffffffffffffffffffffffffffffffffffffffff168373ffffffffffffffffffffffffffffffffffffffff167f8c5be1e5ebec7d5bd14f71427d1e84f3dd0314c0f7b2291e5b200ac8c7c3b9258360405162001b6c919062002b4d565b60405180910390a3505050565b600062001b8784846200148b565b90507fffffffffffffffffffffffffffffffffffffffffffffffffffffffffffffffff811462001c07578181101562001bf7576040517f08c379a000000000000000000000000000000000000000000000000000000000815260040162001bee9062002993565b60405180910390fd5b62001c068484848403620019a6565b5b50505050565b600073ffffffffffffffffffffffffffffffffffffffff168373ffffffffffffffffffffffffffffffffffffffff16141562001c80576040517f08c379a000000000000000000000000000000000000000000000000000000000815260040162001c779062002a81565b60405180910390fd5b600073ffffffffffffffffffffffffffffffffffffffff168273ffffffffffffffffffffffffffffffffffffffff16141562001cf3576040517f08c379a000000000000000000000000000000000000000000000000000000000815260040162001cea906200292d565b60405180910390fd5b62001d00838383620021b6565b60008060008573ffffffffffffffffffffffffffffffffffffffff1673ffffffffffffffffffffffffffffffffffffffff1681526020019081526020016000205490508181101562001d89576040517f08c379a000000000000000000000000000000000000000000000000000000000815260040162001d8090620029f9565b60405180910390fd5b8181036000808673ffffffffffffffffffffffffffffffffffffffff1673ffffffffffffffffffffffffffffffffffffffff16815260200190815260200160002081905550816000808573ffffffffffffffffffffffffffffffffffffffff1673ffffffffffffffffffffffffffffffffffffffff168152602001908152602001600020600082825462001e1e919062002bdc565b925050819055508273ffffffffffffffffffffffffffffffffffffffff168473ffffffffffffffffffffffffffffffffffffffff167fddf252ad1be2c89b69c2b068fc378daa952ba7f163c4a11628f55a4df523b3ef8460405162001e84919062002b4d565b60405180910390a362001e99848484620021bb565b50505050565b6000600560009054906101000a900473ffffffffffffffffffffffffffffffffffffffff16905081600560006101000a81548173ffffffffffffffffffffffffffffffffffffffff021916908373ffffffffffffffffffffffffffffffffffffffff1602179055508173ffffffffffffffffffffffffffffffffffffffff168173ffffffffffffffffffffffffffffffffffffffff167f8be0079c531659141344cd1fd0a4f28419497f9722a3daafe3b4186f6b6457e060405160405180910390a35050565b600073ffffffffffffffffffffffffffffffffffffffff168273ffffffffffffffffffffffffffffffffffffffff16141562001fd8576040517f08c379a000000000000000000000000000000000000000000000000000000000815260040162001fcf9062002b2b565b60405180910390fd5b62001fe660008383620021b6565b806002600082825462001ffa919062002bdc565b92505081905550806000808473ffffffffffffffffffffffffffffffffffffffff1673ffffffffffffffffffffffffffffffffffffffff168152602001908152602001600020600082825462002051919062002bdc565b925050819055508173ffffffffffffffffffffffffffffffffffffffff16600073ffffffffffffffffffffffffffffffffffffffff167fddf252ad1be2c89b69c2b068fc378daa952ba7f163c4a11628f55a4df523b3ef83604051620020b8919062002b4d565b60405180910390a3620020ce60008383620021bb565b5050565b60003330600660009054906101000a900473ffffffffffffffffffffffffffffffffffffffff166040516200210790620021c0565b620021159392919062002841565b604051809103906000f08015801562002132573d6000803e3d6000fd5b50905080600960003373ffffffffffffffffffffffffffffffffffffffff1673ffffffffffffffffffffffffffffffffffffffff16815260200190815260200160002060006101000a81548173ffffffffffffffffffffffffffffffffffffffff021916908373ffffffffffffffffffffffffffffffffffffffff16021790555050565b505050565b505050565b610703806200343c83390190565b600081359050620021df81620033d3565b92915050565b600081519050620021f681620033ed565b92915050565b6000813590506200220d8162003407565b92915050565b600081519050620022248162003407565b92915050565b6000815190506200223b8162003421565b92915050565b6000602082840312156200225457600080fd5b60006200226484828501620021ce565b91505092915050565b600080604083850312156200228157600080fd5b60006200229185828601620021ce565b9250506020620022a485828601620021ce565b9150509250929050565b600080600060608486031215620022c457600080fd5b6000620022d486828701620021ce565b9350506020620022e786828701620021ce565b9250506040620022fa86828701620021fc565b9150509250925092565b600080604083850312156200231857600080fd5b60006200232885828601620021ce565b92505060206200233b85828601620021fc565b9150509250929050565b6000602082840312156200235857600080fd5b60006200236884828501620021fc565b91505092915050565b600080600080600060a086880312156200238a57600080fd5b60006200239a888289016200222a565b9550506020620023ad88828901620021e5565b9450506040620023c08882890162002213565b9350506060620023d38882890162002213565b9250506080620023e6888289016200222a565b9150509295509295909350565b600062002401838362002776565b60208301905092915050565b620024188162002d81565b82525050565b620024336200242d8262002d81565b62002eb2565b82525050565b6000620024468262002b97565b62002452818562002bba565b93506200245f8362002b87565b8060005b83811015620024965781516200247a8882620023f3565b9750620024878362002bad565b92505060018101905062002463565b5085935050505092915050565b620024ae8162002d95565b82525050565b620024bf8162002da1565b82525050565b6000620024d28262002ba2565b620024de818562002bcb565b9350620024f081856020860162002df8565b620024fb8162002fa9565b840191505092915050565b60006200251560238362002bcb565b9150620025228262002fc7565b604082019050919050565b60006200253c60268362002bcb565b9150620025498262003016565b604082019050919050565b60006200256360228362002bcb565b9150620025708262003065565b604082019050919050565b60006200258a601d8362002bcb565b91506200259782620030b4565b602082019050919050565b6000620025b1601c8362002bcb565b9150620025be82620030dd565b602082019050919050565b6000620025d860308362002bcb565b9150620025e58262003106565b604082019050919050565b6000620025ff60268362002bcb565b91506200260c8262003155565b604082019050919050565b60006200262660188362002bcb565b91506200263382620031a4565b602082019050919050565b60006200264d60208362002bcb565b91506200265a82620031cd565b602082019050919050565b60006200267460208362002bcb565b91506200268182620031f6565b602082019050919050565b60006200269b60258362002bcb565b9150620026a8826200321f565b604082019050919050565b6000620026c260248362002bcb565b9150620026cf826200326e565b604082019050919050565b6000620026e960298362002bcb565b9150620026f682620032bd565b604082019050919050565b60006200271060288362002bcb565b91506200271d826200330c565b604082019050919050565b60006200273760258362002bcb565b915062002744826200335b565b604082019050919050565b60006200275e601f8362002bcb565b91506200276b82620033aa565b602082019050919050565b620027818162002dcb565b82525050565b620027928162002dcb565b82525050565b620027ad620027a78262002dcb565b62002eda565b82525050565b620027be8162002dd5565b82525050565b6000620027d2828462002798565b60208201915081905092915050565b6000620027ef828662002798565b6020820191506200280182856200241e565b60148201915062002813828462002798565b602082019150819050949350505050565b60006020820190506200283b60008301846200240d565b92915050565b60006060820190506200285860008301866200240d565b6200286760208301856200240d565b6200287660408301846200240d565b949350505050565b60006040820190506200289560008301856200240d565b620028a4602083018462002787565b9392505050565b60006020820190508181036000830152620028c7818462002439565b905092915050565b6000602082019050620028e66000830184620024a3565b92915050565b6000602082019050620029036000830184620024b4565b92915050565b60006020820190508181036000830152620029258184620024c5565b905092915050565b60006020820190508181036000830152620029488162002506565b9050919050565b600060208201905081810360008301526200296a816200252d565b9050919050565b600060208201905081810360008301526200298c8162002554565b9050919050565b60006020820190508181036000830152620029ae816200257b565b9050919050565b60006020820190508181036000830152620029d081620025a2565b9050919050565b60006020820190508181036000830152620029f281620025c9565b9050919050565b6000602082019050818103600083015262002a1481620025f0565b9050919050565b6000602082019050818103600083015262002a368162002617565b9050919050565b6000602082019050818103600083015262002a58816200263e565b9050919050565b6000602082019050818103600083015262002a7a8162002665565b9050919050565b6000602082019050818103600083015262002a9c816200268c565b9050919050565b6000602082019050818103600083015262002abe81620026b3565b9050919050565b6000602082019050818103600083015262002ae081620026da565b9050919050565b6000602082019050818103600083015262002b028162002701565b9050919050565b6000602082019050818103600083015262002b248162002728565b9050919050565b6000602082019050818103600083015262002b46816200274f565b9050919050565b600060208201905062002b64600083018462002787565b92915050565b600060208201905062002b816000830184620027b3565b92915050565b6000819050602082019050919050565b600081519050919050565b600081519050919050565b6000602082019050919050565b600082825260208201905092915050565b600082825260208201905092915050565b600062002be98262002dcb565b915062002bf68362002dcb565b9250827fffffffffffffffffffffffffffffffffffffffffffffffffffffffffffffffff0382111562002c2e5762002c2d62002f1c565b5b828201905092915050565b600062002c468262002da1565b915062002c538362002da1565b92508262002c665762002c6562002f4b565b5b600160000383147f80000000000000000000000000000000000000000000000000000000000000008314161562002ca25762002ca162002f1c565b5b828205905092915050565b600062002cba8262002dcb565b915062002cc78362002dcb565b92508262002cda5762002cd962002f4b565b5b828204905092915050565b600062002cf28262002dcb565b915062002cff8362002dcb565b9250817fffffffffffffffffffffffffffffffffffffffffffffffffffffffffffffffff048311821515161562002d3b5762002d3a62002f1c565b5b828202905092915050565b600062002d538262002dcb565b915062002d608362002dcb565b92508282101562002d765762002d7562002f1c565b5b828203905092915050565b600062002d8e8262002dab565b9050919050565b60008115159050919050565b6000819050919050565b600073ffffffffffffffffffffffffffffffffffffffff82169050919050565b6000819050919050565b600060ff82169050919050565b600069ffffffffffffffffffff82169050919050565b60005b8381101562002e1857808201518184015260208101905062002dfb565b8381111562002e28576000848401525b50505050565b6000600282049050600182168062002e4757607f821691505b6020821081141562002e5e5762002e5d62002f7a565b5b50919050565b600062002e718262002dcb565b91507fffffffffffffffffffffffffffffffffffffffffffffffffffffffffffffffff82141562002ea75762002ea662002f1c565b5b600182019050919050565b600062002ebf8262002ec6565b9050919050565b600062002ed38262002fba565b9050919050565b6000819050919050565b600062002ef18262002dcb565b915062002efe8362002dcb565b92508262002f115762002f1062002f4b565b5b828206905092915050565b7f4e487b7100000000000000000000000000000000000000000000000000000000600052601160045260246000fd5b7f4e487b7100000000000000000000000000000000000000000000000000000000600052601260045260246000fd5b7f4e487b7100000000000000000000000000000000000000000000000000000000600052602260045260246000fd5b6000601f19601f8301169050919050565b60008160601b9050919050565b7f45524332303a207472616e7366657220746f20746865207a65726f206164647260008201527f6573730000000000000000000000000000000000000000000000000000000000602082015250565b7f4f776e61626c653a206e6577206f776e657220697320746865207a65726f206160008201527f6464726573730000000000000000000000000000000000000000000000000000602082015250565b7f45524332303a20617070726f766520746f20746865207a65726f20616464726560008201527f7373000000000000000000000000000000000000000000000000000000000000602082015250565b7f45524332303a20696e73756666696369656e7420616c6c6f77616e6365000000600082015250565b7f4e6f207469656e657320746f6b656e7320737566696369656e74657300000000600082015250565b7f4e6563657369746173206465766f6c76657220756e206e756d65726f2064652060008201527f746f6b656e73206d61796f722061203000000000000000000000000000000000602082015250565b7f45524332303a207472616e7366657220616d6f756e742065786365656473206260008201527f616c616e63650000000000000000000000000000000000000000000000000000602082015250565b7f4e6f2068617920626f6c65746f7320636f6d707261646f730000000000000000600082015250565b7f436f6d70726120756e206e756d65726f206d656e6f7220646520746f6b656e73600082015250565b7f4f776e61626c653a2063616c6c6572206973206e6f7420746865206f776e6572600082015250565b7f45524332303a207472616e736665722066726f6d20746865207a65726f20616460008201527f6472657373000000000000000000000000000000000000000000000000000000602082015250565b7f45524332303a20617070726f76652066726f6d20746865207a65726f2061646460008201527f7265737300000000000000000000000000000000000000000000000000000000602082015250565b7f436f6d707261206d656e6f7320746f6b656e73206f207061676120636f6e206d60008201527f6173206574686572730000000000000000000000000000000000000000000000602082015250565b7f4e6f207469656e6573206c6f7320746f6b656e7320717565206465736561732060008201527f6465766f6c766572000000000000000000000000000000000000000000000000602082015250565b7f45524332303a2064656372656173656420616c6c6f77616e63652062656c6f7760008201527f207a65726f000000000000000000000000000000000000000000000000000000602082015250565b7f45524332303a206d696e7420746f20746865207a65726f206164647265737300600082015250565b620033de8162002d81565b8114620033ea57600080fd5b50565b620033f88162002da1565b81146200340457600080fd5b50565b620034128162002dcb565b81146200341e57600080fd5b50565b6200342c8162002de2565b81146200343857600080fd5b5056fe608060405234801561001057600080fd5b50604051610703380380610703833981810160405281019061003291906101e8565b60405180608001604052808473ffffffffffffffffffffffffffffffffffffffff1681526020018373ffffffffffffffffffffffffffffffffffffffff1681526020018273ffffffffffffffffffffffffffffffffffffffff1681526020013073ffffffffffffffffffffffffffffffffffffffff168152506000808201518160000160006101000a81548173ffffffffffffffffffffffffffffffffffffffff021916908373ffffffffffffffffffffffffffffffffffffffff16021790555060208201518160010160006101000a81548173ffffffffffffffffffffffffffffffffffffffff021916908373ffffffffffffffffffffffffffffffffffffffff16021790555060408201518160020160006101000a81548173ffffffffffffffffffffffffffffffffffffffff021916908373ffffffffffffffffffffffffffffffffffffffff16021790555060608201518160030160006101000a81548173ffffffffffffffffffffffffffffffffffffffff021916908373ffffffffffffffffffffffffffffffffffffffff160217905550905050505050610280565b6000815190506101e281610269565b92915050565b6000806000606084860312156101fd57600080fd5b600061020b868287016101d3565b935050602061021c868287016101d3565b925050604061022d868287016101d3565b9150509250925092565b600061024282610249565b9050919050565b600073ffffffffffffffffffffffffffffffffffffffff82169050919050565b61027281610237565b811461027d57600080fd5b50565b6104748061028f6000396000f3fe608060405234801561001057600080fd5b50600436106100365760003560e01c8063120e85231461003b5780633c4f81cd14610057575b600080fd5b61005560048036038101906100509190610269565b610078565b005b61005f6101a1565b60405161006f94939291906102e6565b60405180910390f35b600060010160009054906101000a900473ffffffffffffffffffffffffffffffffffffffff1673ffffffffffffffffffffffffffffffffffffffff163373ffffffffffffffffffffffffffffffffffffffff161461010b576040517f08c379a000000000000000000000000000000000000000000000000000000000815260040161010290610354565b60405180910390fd5b600060020160009054906101000a900473ffffffffffffffffffffffffffffffffffffffff1673ffffffffffffffffffffffffffffffffffffffff1663a144819483836040518363ffffffff1660e01b815260040161016b92919061032b565b600060405180830381600087803b15801561018557600080fd5b505af1158015610199573d6000803e3d6000fd5b505050505050565b60008060000160009054906101000a900473ffffffffffffffffffffffffffffffffffffffff16908060010160009054906101000a900473ffffffffffffffffffffffffffffffffffffffff16908060020160009054906101000a900473ffffffffffffffffffffffffffffffffffffffff16908060030160009054906101000a900473ffffffffffffffffffffffffffffffffffffffff16905084565b60008135905061024e81610410565b92915050565b60008135905061026381610427565b92915050565b6000806040838503121561027c57600080fd5b600061028a8582860161023f565b925050602061029b85828601610254565b9150509250929050565b6102ae81610385565b82525050565b60006102c1602d83610374565b91506102cc826103c1565b604082019050919050565b6102e0816103b7565b82525050565b60006080820190506102fb60008301876102a5565b61030860208301866102a5565b61031560408301856102a5565b61032260608301846102a5565b95945050505050565b600060408201905061034060008301856102a5565b61034d60208301846102d7565b9392505050565b6000602082019050818103600083015261036d816102b4565b9050919050565b600082825260208201905092915050565b600061039082610397565b9050919050565b600073ffffffffffffffffffffffffffffffffffffffff82169050919050565b6000819050919050565b7f4e6f207469656e6573207065726d69736f73207061726120656a65637574617260008201527f20657374612066756e63696f6e00000000000000000000000000000000000000602082015250565b61041981610385565b811461042457600080fd5b50565b610430816103b7565b811461043b57600080fd5b5056fea26469706673582212208e0d466b43a39eb44562ca322c2625f114f7e233d2dd8764b2e9383366f8bad964736f6c63430008040033a26469706673582212209f735f7a9d7a7dcc5b2d10d9406b2c4995d7a58c09f1c43d4c54ca4ab89b032c64736f6c6343000804003360806040523480156200001157600080fd5b506040518060400160405280600c81526020017f4c6f747465727920506c757300000000000000000000000000000000000000008152506040518060400160405280600381526020017f4c54500000000000000000000000000000000000000000000000000000000000815250816000908051906020019062000096929190620000f9565b508060019080519060200190620000af929190620000f9565b50505033600660006101000a81548173ffffffffffffffffffffffffffffffffffffffff021916908373ffffffffffffffffffffffffffffffffffffffff1602179055506200020e565b8280546200010790620001a9565b90600052602060002090601f0160209004810192826200012b576000855562000177565b82601f106200014657805160ff191683800117855562000177565b8280016001018555821562000177579182015b828111156200017657825182559160200191906001019062000159565b5b5090506200018691906200018a565b5090565b5b80821115620001a55760008160009055506001016200018b565b5090565b60006002820490506001821680620001c257607f821691505b60208210811415620001d957620001d8620001df565b5b50919050565b7f4e487b7100000000000000000000000000000000000000000000000000000000600052602260045260246000fd5b61296e806200021e6000396000f3fe608060405234801561001057600080fd5b50600436106100f55760003560e01c80636352211e11610097578063a22cb46511610066578063a22cb46514610284578063b88d4fde146102a0578063c87b56dd146102bc578063e985e9c5146102ec576100f5565b80636352211e146101ea57806370a082311461021a57806395d89b411461024a578063a144819414610268576100f5565b8063095ea7b3116100d3578063095ea7b31461017857806323b872dd1461019457806342842e0e146101b05780635aa0c73d146101cc576100f5565b806301ffc9a7146100fa57806306fdde031461012a578063081812fc14610148575b600080fd5b610114600480360381019061010f9190611ade565b61031c565b6040516101219190611ec1565b60405180910390f35b6101326103fe565b60405161013f9190611edc565b60405180910390f35b610162600480360381019061015d9190611b30565b610490565b60405161016f9190611e5a565b60405180910390f35b610192600480360381019061018d9190611aa2565b610515565b005b6101ae60048036038101906101a9919061199c565b61062d565b005b6101ca60048036038101906101c5919061199c565b61068d565b005b6101d46106ad565b6040516101e19190611e5a565b60405180910390f35b61020460048036038101906101ff9190611b30565b6106d3565b6040516102119190611e5a565b60405180910390f35b610234600480360381019061022f919061190e565b610785565b60405161024191906120de565b60405180910390f35b61025261083d565b60405161025f9190611edc565b60405180910390f35b610282600480360381019061027d9190611aa2565b6108cf565b005b61029e60048036038101906102999190611a66565b6109f5565b005b6102ba60048036038101906102b591906119eb565b610a0b565b005b6102d660048036038101906102d19190611b30565b610a6d565b6040516102e39190611edc565b60405180910390f35b61030660048036038101906103019190611960565b610b14565b6040516103139190611ec1565b60405180910390f35b60007f80ac58cd000000000000000000000000000000000000000000000000000000007bffffffffffffffffffffffffffffffffffffffffffffffffffffffff1916827bffffffffffffffffffffffffffffffffffffffffffffffffffffffff191614806103e757507f5b5e139f000000000000000000000000000000000000000000000000000000007bffffffffffffffffffffffffffffffffffffffffffffffffffffffff1916827bffffffffffffffffffffffffffffffffffffffffffffffffffffffff1916145b806103f757506103f682610ba8565b5b9050919050565b60606000805461040d90612303565b80601f016020809104026020016040519081016040528092919081815260200182805461043990612303565b80156104865780601f1061045b57610100808354040283529160200191610486565b820191906000526020600020905b81548152906001019060200180831161046957829003601f168201915b5050505050905090565b600061049b82610c12565b6104da576040517f08c379a00000000000000000000000000000000000000000000000000000000081526004016104d19061203e565b60405180910390fd5b6004600083815260200190815260200160002060009054906101000a900473ffffffffffffffffffffffffffffffffffffffff169050919050565b6000610520826106d3565b90508073ffffffffffffffffffffffffffffffffffffffff168373ffffffffffffffffffffffffffffffffffffffff161415610591576040517f08c379a00000000000000000000000000000000000000000000000000000000081526004016105889061209e565b60405180910390fd5b8073ffffffffffffffffffffffffffffffffffffffff166105b0610c7e565b73ffffffffffffffffffffffffffffffffffffffff1614806105df57506105de816105d9610c7e565b610b14565b5b61061e576040517f08c379a000000000000000000000000000000000000000000000000000000000815260040161061590611fbe565b60405180910390fd5b6106288383610c86565b505050565b61063e610638610c7e565b82610d3f565b61067d576040517f08c379a0000000000000000000000000000000000000000000000000000000008152600401610674906120be565b60405180910390fd5b610688838383610e1d565b505050565b6106a883838360405180602001604052806000815250610a0b565b505050565b600660009054906101000a900473ffffffffffffffffffffffffffffffffffffffff1681565b6000806002600084815260200190815260200160002060009054906101000a900473ffffffffffffffffffffffffffffffffffffffff169050600073ffffffffffffffffffffffffffffffffffffffff168173ffffffffffffffffffffffffffffffffffffffff16141561077c576040517f08c379a000000000000000000000000000000000000000000000000000000000815260040161077390611ffe565b60405180910390fd5b80915050919050565b60008073ffffffffffffffffffffffffffffffffffffffff168273ffffffffffffffffffffffffffffffffffffffff1614156107f6576040517f08c379a00000000000000000000000000000000000000000000000000000000081526004016107ed90611fde565b60405180910390fd5b600360008373ffffffffffffffffffffffffffffffffffffffff1673ffffffffffffffffffffffffffffffffffffffff168152602001908152602001600020549050919050565b60606001805461084c90612303565b80601f016020809104026020016040519081016040528092919081815260200182805461087890612303565b80156108c55780601f1061089a576101008083540402835291602001916108c5565b820191906000526020600020905b8154815290600101906020018083116108a857829003601f168201915b5050505050905090565b600660009054906101000a900473ffffffffffffffffffffffffffffffffffffffff1673ffffffffffffffffffffffffffffffffffffffff16635d0eaaaf836040518263ffffffff1660e01b815260040161092a9190611e5a565b60206040518083038186803b15801561094257600080fd5b505afa158015610956573d6000803e3d6000fd5b505050506040513d601f19601f8201168201806040525081019061097a9190611937565b73ffffffffffffffffffffffffffffffffffffffff163373ffffffffffffffffffffffffffffffffffffffff16146109e7576040517f08c379a00000000000000000000000000000000000000000000000000000000081526004016109de9061207e565b60405180910390fd5b6109f18282611084565b5050565b610a07610a00610c7e565b83836110a2565b5050565b610a1c610a16610c7e565b83610d3f565b610a5b576040517f08c379a0000000000000000000000000000000000000000000000000000000008152600401610a52906120be565b60405180910390fd5b610a678484848461120f565b50505050565b6060610a7882610c12565b610ab7576040517f08c379a0000000000000000000000000000000000000000000000000000000008152600401610aae9061205e565b60405180910390fd5b6000610ac161126b565b90506000815111610ae15760405180602001604052806000815250610b0c565b80610aeb84611282565b604051602001610afc929190611e36565b6040516020818303038152906040525b915050919050565b6000600560008473ffffffffffffffffffffffffffffffffffffffff1673ffffffffffffffffffffffffffffffffffffffff16815260200190815260200160002060008373ffffffffffffffffffffffffffffffffffffffff1673ffffffffffffffffffffffffffffffffffffffff16815260200190815260200160002060009054906101000a900460ff16905092915050565b60007f01ffc9a7000000000000000000000000000000000000000000000000000000007bffffffffffffffffffffffffffffffffffffffffffffffffffffffff1916827bffffffffffffffffffffffffffffffffffffffffffffffffffffffff1916149050919050565b60008073ffffffffffffffffffffffffffffffffffffffff166002600084815260200190815260200160002060009054906101000a900473ffffffffffffffffffffffffffffffffffffffff1673ffffffffffffffffffffffffffffffffffffffff1614159050919050565b600033905090565b816004600083815260200190815260200160002060006101000a81548173ffffffffffffffffffffffffffffffffffffffff021916908373ffffffffffffffffffffffffffffffffffffffff160217905550808273ffffffffffffffffffffffffffffffffffffffff16610cf9836106d3565b73ffffffffffffffffffffffffffffffffffffffff167f8c5be1e5ebec7d5bd14f71427d1e84f3dd0314c0f7b2291e5b200ac8c7c3b92560405160405180910390a45050565b6000610d4a82610c12565b610d89576040517f08c379a0000000000000000000000000000000000000000000000000000000008152600401610d8090611f9e565b60405180910390fd5b6000610d94836106d3565b90508073ffffffffffffffffffffffffffffffffffffffff168473ffffffffffffffffffffffffffffffffffffffff161480610e0357508373ffffffffffffffffffffffffffffffffffffffff16610deb84610490565b73ffffffffffffffffffffffffffffffffffffffff16145b80610e145750610e138185610b14565b5b91505092915050565b8273ffffffffffffffffffffffffffffffffffffffff16610e3d826106d3565b73ffffffffffffffffffffffffffffffffffffffff1614610e93576040517f08c379a0000000000000000000000000000000000000000000000000000000008152600401610e8a90611f1e565b60405180910390fd5b600073ffffffffffffffffffffffffffffffffffffffff168273ffffffffffffffffffffffffffffffffffffffff161415610f03576040517f08c379a0000000000000000000000000000000000000000000000000000000008152600401610efa90611f5e565b60405180910390fd5b610f0e83838361142f565b610f19600082610c86565b6001600360008573ffffffffffffffffffffffffffffffffffffffff1673ffffffffffffffffffffffffffffffffffffffff1681526020019081526020016000206000828254610f699190612219565b925050819055506001600360008473ffffffffffffffffffffffffffffffffffffffff1673ffffffffffffffffffffffffffffffffffffffff1681526020019081526020016000206000828254610fc09190612192565b92505081905550816002600083815260200190815260200160002060006101000a81548173ffffffffffffffffffffffffffffffffffffffff021916908373ffffffffffffffffffffffffffffffffffffffff160217905550808273ffffffffffffffffffffffffffffffffffffffff168473ffffffffffffffffffffffffffffffffffffffff167fddf252ad1be2c89b69c2b068fc378daa952ba7f163c4a11628f55a4df523b3ef60405160405180910390a461107f838383611434565b505050565b61109e828260405180602001604052806000815250611439565b5050565b8173ffffffffffffffffffffffffffffffffffffffff168373ffffffffffffffffffffffffffffffffffffffff161415611111576040517f08c379a000000000000000000000000000000000000000000000000000000000815260040161110890611f7e565b60405180910390fd5b80600560008573ffffffffffffffffffffffffffffffffffffffff1673ffffffffffffffffffffffffffffffffffffffff16815260200190815260200160002060008473ffffffffffffffffffffffffffffffffffffffff1673ffffffffffffffffffffffffffffffffffffffff16815260200190815260200160002060006101000a81548160ff0219169083151502179055508173ffffffffffffffffffffffffffffffffffffffff168373ffffffffffffffffffffffffffffffffffffffff167f17307eab39ab6107e8899845ad3d59bd9653f200f220920489ca2b5937696c31836040516112029190611ec1565b60405180910390a3505050565b61121a848484610e1d565b61122684848484611494565b611265576040517f08c379a000000000000000000000000000000000000000000000000000000000815260040161125c90611efe565b60405180910390fd5b50505050565b606060405180602001604052806000815250905090565b606060008214156112ca576040518060400160405280600181526020017f3000000000000000000000000000000000000000000000000000000000000000815250905061142a565b600082905060005b600082146112fc5780806112e590612366565b915050600a826112f591906121e8565b91506112d2565b60008167ffffffffffffffff81111561133e577f4e487b7100000000000000000000000000000000000000000000000000000000600052604160045260246000fd5b6040519080825280601f01601f1916602001820160405280156113705781602001600182028036833780820191505090505b5090505b60008514611423576001826113899190612219565b9150600a8561139891906123af565b60306113a49190612192565b60f81b8183815181106113e0577f4e487b7100000000000000000000000000000000000000000000000000000000600052603260045260246000fd5b60200101907effffffffffffffffffffffffffffffffffffffffffffffffffffffffffffff1916908160001a905350600a8561141c91906121e8565b9450611374565b8093505050505b919050565b505050565b505050565b611443838361162b565b6114506000848484611494565b61148f576040517f08c379a000000000000000000000000000000000000000000000000000000000815260040161148690611efe565b60405180910390fd5b505050565b60006114b58473ffffffffffffffffffffffffffffffffffffffff16611805565b1561161e578373ffffffffffffffffffffffffffffffffffffffff1663150b7a026114de610c7e565b8786866040518563ffffffff1660e01b81526004016115009493929190611e75565b602060405180830381600087803b15801561151a57600080fd5b505af192505050801561154b57506040513d601f19601f820116820180604052508101906115489190611b07565b60015b6115ce573d806000811461157b576040519150601f19603f3d011682016040523d82523d6000602084013e611580565b606091505b506000815114156115c6576040517f08c379a00000000000000000000000000000000000000000000000000000000081526004016115bd90611efe565b60405180910390fd5b805181602001fd5b63150b7a0260e01b7bffffffffffffffffffffffffffffffffffffffffffffffffffffffff1916817bffffffffffffffffffffffffffffffffffffffffffffffffffffffff191614915050611623565b600190505b949350505050565b600073ffffffffffffffffffffffffffffffffffffffff168273ffffffffffffffffffffffffffffffffffffffff16141561169b576040517f08c379a00000000000000000000000000000000000000000000000000000000081526004016116929061201e565b60405180910390fd5b6116a481610c12565b156116e4576040517f08c379a00000000000000000000000000000000000000000000000000000000081526004016116db90611f3e565b60405180910390fd5b6116f06000838361142f565b6001600360008473ffffffffffffffffffffffffffffffffffffffff1673ffffffffffffffffffffffffffffffffffffffff16815260200190815260200160002060008282546117409190612192565b92505081905550816002600083815260200190815260200160002060006101000a81548173ffffffffffffffffffffffffffffffffffffffff021916908373ffffffffffffffffffffffffffffffffffffffff160217905550808273ffffffffffffffffffffffffffffffffffffffff16600073ffffffffffffffffffffffffffffffffffffffff167fddf252ad1be2c89b69c2b068fc378daa952ba7f163c4a11628f55a4df523b3ef60405160405180910390a461180160008383611434565b5050565b6000808273ffffffffffffffffffffffffffffffffffffffff163b119050919050565b600061183b6118368461211e565b6120f9565b90508281526020810184848401111561185357600080fd5b61185e8482856122c1565b509392505050565b600081359050611875816128dc565b92915050565b60008151905061188a816128dc565b92915050565b60008135905061189f816128f3565b92915050565b6000813590506118b48161290a565b92915050565b6000815190506118c98161290a565b92915050565b600082601f8301126118e057600080fd5b81356118f0848260208601611828565b91505092915050565b60008135905061190881612921565b92915050565b60006020828403121561192057600080fd5b600061192e84828501611866565b91505092915050565b60006020828403121561194957600080fd5b60006119578482850161187b565b91505092915050565b6000806040838503121561197357600080fd5b600061198185828601611866565b925050602061199285828601611866565b9150509250929050565b6000806000606084860312156119b157600080fd5b60006119bf86828701611866565b93505060206119d086828701611866565b92505060406119e1868287016118f9565b9150509250925092565b60008060008060808587031215611a0157600080fd5b6000611a0f87828801611866565b9450506020611a2087828801611866565b9350506040611a31878288016118f9565b925050606085013567ffffffffffffffff811115611a4e57600080fd5b611a5a878288016118cf565b91505092959194509250565b60008060408385031215611a7957600080fd5b6000611a8785828601611866565b9250506020611a9885828601611890565b9150509250929050565b60008060408385031215611ab557600080fd5b6000611ac385828601611866565b9250506020611ad4858286016118f9565b9150509250929050565b600060208284031215611af057600080fd5b6000611afe848285016118a5565b91505092915050565b600060208284031215611b1957600080fd5b6000611b27848285016118ba565b91505092915050565b600060208284031215611b4257600080fd5b6000611b50848285016118f9565b91505092915050565b611b628161224d565b82525050565b611b718161225f565b82525050565b6000611b828261214f565b611b8c8185612165565b9350611b9c8185602086016122d0565b611ba58161249c565b840191505092915050565b6000611bbb8261215a565b611bc58185612176565b9350611bd58185602086016122d0565b611bde8161249c565b840191505092915050565b6000611bf48261215a565b611bfe8185612187565b9350611c0e8185602086016122d0565b80840191505092915050565b6000611c27603283612176565b9150611c32826124ad565b604082019050919050565b6000611c4a602583612176565b9150611c55826124fc565b604082019050919050565b6000611c6d601c83612176565b9150611c788261254b565b602082019050919050565b6000611c90602483612176565b9150611c9b82612574565b604082019050919050565b6000611cb3601983612176565b9150611cbe826125c3565b602082019050919050565b6000611cd6602c83612176565b9150611ce1826125ec565b604082019050919050565b6000611cf9603883612176565b9150611d048261263b565b604082019050919050565b6000611d1c602a83612176565b9150611d278261268a565b604082019050919050565b6000611d3f602983612176565b9150611d4a826126d9565b604082019050919050565b6000611d62602083612176565b9150611d6d82612728565b602082019050919050565b6000611d85602c83612176565b9150611d9082612751565b604082019050919050565b6000611da8602f83612176565b9150611db3826127a0565b604082019050919050565b6000611dcb602d83612176565b9150611dd6826127ef565b604082019050919050565b6000611dee602183612176565b9150611df98261283e565b604082019050919050565b6000611e11603183612176565b9150611e1c8261288d565b604082019050919050565b611e30816122b7565b82525050565b6000611e428285611be9565b9150611e4e8284611be9565b91508190509392505050565b6000602082019050611e6f6000830184611b59565b92915050565b6000608082019050611e8a6000830187611b59565b611e976020830186611b59565b611ea46040830185611e27565b8181036060830152611eb68184611b77565b905095945050505050565b6000602082019050611ed66000830184611b68565b92915050565b60006020820190508181036000830152611ef68184611bb0565b905092915050565b60006020820190508181036000830152611f1781611c1a565b9050919050565b60006020820190508181036000830152611f3781611c3d565b9050919050565b60006020820190508181036000830152611f5781611c60565b9050919050565b60006020820190508181036000830152611f7781611c83565b9050919050565b60006020820190508181036000830152611f9781611ca6565b9050919050565b60006020820190508181036000830152611fb781611cc9565b9050919050565b60006020820190508181036000830152611fd781611cec565b9050919050565b60006020820190508181036000830152611ff781611d0f565b9050919050565b6000602082019050818103600083015261201781611d32565b9050919050565b6000602082019050818103600083015261203781611d55565b9050919050565b6000602082019050818103600083015261205781611d78565b9050919050565b6000602082019050818103600083015261207781611d9b565b9050919050565b6000602082019050818103600083015261209781611dbe565b9050919050565b600060208201905081810360008301526120b781611de1565b9050919050565b600060208201905081810360008301526120d781611e04565b9050919050565b60006020820190506120f36000830184611e27565b92915050565b6000612103612114565b905061210f8282612335565b919050565b6000604051905090565b600067ffffffffffffffff8211156121395761213861246d565b5b6121428261249c565b9050602081019050919050565b600081519050919050565b600081519050919050565b600082825260208201905092915050565b600082825260208201905092915050565b600081905092915050565b600061219d826122b7565b91506121a8836122b7565b9250827fffffffffffffffffffffffffffffffffffffffffffffffffffffffffffffffff038211156121dd576121dc6123e0565b5b828201905092915050565b60006121f3826122b7565b91506121fe836122b7565b92508261220e5761220d61240f565b5b828204905092915050565b6000612224826122b7565b915061222f836122b7565b925082821015612242576122416123e0565b5b828203905092915050565b600061225882612297565b9050919050565b60008115159050919050565b60007fffffffff0000000000000000000000000000000000000000000000000000000082169050919050565b600073ffffffffffffffffffffffffffffffffffffffff82169050919050565b6000819050919050565b82818337600083830152505050565b60005b838110156122ee5780820151818401526020810190506122d3565b838111156122fd576000848401525b50505050565b6000600282049050600182168061231b57607f821691505b6020821081141561232f5761232e61243e565b5b50919050565b61233e8261249c565b810181811067ffffffffffffffff8211171561235d5761235c61246d565b5b80604052505050565b6000612371826122b7565b91507fffffffffffffffffffffffffffffffffffffffffffffffffffffffffffffffff8214156123a4576123a36123e0565b5b600182019050919050565b60006123ba826122b7565b91506123c5836122b7565b9250826123d5576123d461240f565b5b828206905092915050565b7f4e487b7100000000000000000000000000000000000000000000000000000000600052601160045260246000fd5b7f4e487b7100000000000000000000000000000000000000000000000000000000600052601260045260246000fd5b7f4e487b7100000000000000000000000000000000000000000000000000000000600052602260045260246000fd5b7f4e487b7100000000000000000000000000000000000000000000000000000000600052604160045260246000fd5b6000601f19601f8301169050919050565b7f4552433732313a207472616e7366657220746f206e6f6e20455243373231526560008201527f63656976657220696d706c656d656e7465720000000000000000000000000000602082015250565b7f4552433732313a207472616e736665722066726f6d20696e636f72726563742060008201527f6f776e6572000000000000000000000000000000000000000000000000000000602082015250565b7f4552433732313a20746f6b656e20616c7265616479206d696e74656400000000600082015250565b7f4552433732313a207472616e7366657220746f20746865207a65726f2061646460008201527f7265737300000000000000000000000000000000000000000000000000000000602082015250565b7f4552433732313a20617070726f766520746f2063616c6c657200000000000000600082015250565b7f4552433732313a206f70657261746f7220717565727920666f72206e6f6e657860008201527f697374656e7420746f6b656e0000000000000000000000000000000000000000602082015250565b7f4552433732313a20617070726f76652063616c6c6572206973206e6f74206f7760008201527f6e6572206e6f7220617070726f76656420666f7220616c6c0000000000000000602082015250565b7f4552433732313a2062616c616e636520717565727920666f7220746865207a6560008201527f726f206164647265737300000000000000000000000000000000000000000000602082015250565b7f4552433732313a206f776e657220717565727920666f72206e6f6e657869737460008201527f656e7420746f6b656e0000000000000000000000000000000000000000000000602082015250565b7f4552433732313a206d696e7420746f20746865207a65726f2061646472657373600082015250565b7f4552433732313a20617070726f76656420717565727920666f72206e6f6e657860008201527f697374656e7420746f6b656e0000000000000000000000000000000000000000602082015250565b7f4552433732314d657461646174613a2055524920717565727920666f72206e6f60008201527f6e6578697374656e7420746f6b656e0000000000000000000000000000000000602082015250565b7f4e6f207469656e6573207065726d69736f73207061726120656a65637574617260008201527f20657374612066756e63696f6e00000000000000000000000000000000000000602082015250565b7f4552433732313a20617070726f76616c20746f2063757272656e74206f776e6560008201527f7200000000000000000000000000000000000000000000000000000000000000602082015250565b7f4552433732313a207472616e736665722063616c6c6572206973206e6f74206f60008201527f776e6572206e6f7220617070726f766564000000000000000000000000000000602082015250565b6128e58161224d565b81146128f057600080fd5b50565b6128fc8161225f565b811461290757600080fd5b50565b6129138161226b565b811461291e57600080fd5b50565b61292a816122b7565b811461293557600080fd5b5056fea2646970667358221220624be3ab98381d32672ae9aaa1d9bc43e211a3ed70da3e8499a42909460f20d264736f6c63430008040033",
  "immutableReferences": {},
  "source": "// SPDX-License-Identifier: MIT\npragma solidity ^0.8.4;\n\nimport \"@openzeppelin/contracts/token/ERC20/ERC20.sol\";\nimport \"@openzeppelin/contracts/token/ERC721/ERC721.sol\";\nimport \"@openzeppelin/contracts/access/Ownable.sol\";\nimport \"@openzeppelin/contracts/token/ERC20/IERC20.sol\";\nimport \"@chainlink/contracts/src/v0.8/interfaces/AggregatorV3Interface.sol\";\n\ncontract loteria is ERC20, Ownable {\n \n    // ============================================\n    // Gestion de los tokens\n    // ============================================\n\n    // Direccion del contrato NFT del proyecto\n    address public nft;\n\n    AggregatorV3Interface internal priceFeed;\n \n \n\n     \n    // Constructor \n    constructor() ERC20(\"Lottery Plus BNB\", \"LTPB\"){\n\n         \n         _mint(address(this), 1000000 );\n         nft = address(new mainERC721());\n         priceFeed = AggregatorV3Interface(0x2514895c72f50D8bd4B4F9b1110F0D6bD2c97526);\n   \n        \n       }\n\n\n    // Ganador del premio de la loteria\n    address public ganador;\n\n    // Registro del usuario\n    mapping(address => address) public usuario_contract;\n    // Precio de los tokens ERC-20\n\n   \n       function precioTokens(uint256 _numTokens) public view  returns (uint256){\n           uint256  precioF = 1 ether;\n           uint256  bnb = uint256 (getBNBPrice());\n        return _numTokens * (precioF / bnb);\n     \n    }\n\n     function getBNBPrice() public view returns (int256) {\n        (, int256 answer, , , ) = priceFeed.latestRoundData();\n        return (answer /1e8);\n    }\n            \n     // Visualizacion del balance de tokens ERC-20 de un usuario\n    function balanceTokens(address _account) public view returns (uint256){\n        return balanceOf(_account);\n    }\n\n    // Visualizacion del balance de tokens ERC-20 del Smart Contract\n    function balanceTokensSC() public view returns (uint256){ \n        return  balanceOf(address(this));\n    }\n\n     \n    // Visualizacion del balance de ethers del Smart Contract\n    function balanceEthersSC() public view returns (uint256){\n        return address(this).balance;\n    }\n\n    // Generacion de nuevos Tokens ERC-20\n    function mint(uint256 _cantidad) public onlyOwner {\n        _mint(address(this), _cantidad);\n    }\n\n  \n    // Registro de usuarios\n    function registrar() internal {\n        address addr_personal_contract = address(new boletosNFTs(msg.sender, address(this), nft));\n        usuario_contract[msg.sender] = addr_personal_contract; \n    }\n\n    // Informacion de un usuario\n    function usersInfo(address _account) public view returns (address){\n        return usuario_contract[_account];\n    }\n\n    // Compra de tokens ERC-20\n    function compraTokens(uint256 _numTokens) public payable {\n        // Registro del ususario\n        if(usuario_contract[msg.sender] == address(0)){\n            registrar();\n        }\n        // Establecimiento del coste de los tokens a comprar\n        uint256 coste = precioTokens(_numTokens);\n        // Evaluacion del dinero que el cliente paga por los tokens\n        require(msg.value >= coste, \"Compra menos tokens o paga con mas ethers\");\n        // Obtencion del numero de tokens ERC-20 disponibles\n        uint256 balance = balanceTokensSC();\n        require(_numTokens <= balance, \"Compra un numero menor de tokens\");\n        // Devolucion del dinero sobrante\n        uint256 returnValue = msg.value - coste;\n        // El Smart Contract devuelve la cantidad restante\n        payable(msg.sender).transfer(returnValue);\n        // Envio de los tokens al cliente/usuario\n        _transfer(address(this), msg.sender, _numTokens);\n    }\n\n    // Devolucion de tokens al Smart Contract\n    function devolverTokens(uint _numTokens) public payable {\n        // El numero de tokens debe ser mayor a 0\n        require(_numTokens > 0, \"Necesitas devolver un numero de tokens mayor a 0\");\n        // El usuario debe acreditar tener los tokens que quiere devolver\n        require(_numTokens <= balanceTokens(msg.sender), \"No tienes los tokens que deseas devolver\");\n        // El usuario transfiere los tokens al Smart Contract\n        _transfer(msg.sender, address(this), _numTokens);\n        // El Smart Contract envia los ethers al usuario\n        payable(msg.sender).transfer(precioTokens(_numTokens));\n    }\n\n    // ============================================\n    // Gestion de la loteria\n    // ============================================\n\n    // Precio del boleto de loteria (en tokens ERC-20)\n    uint public precioBoleto = 1;\n    // Relacion: persona que compra los boletos -> el numero de los boletos\n    mapping(address => uint []) idPersona_boletos;\n    // Relacion: boleto -> ganador\n    mapping(uint => address) ADNBoleto;\n    // Numero aleatorio\n    uint randNonce = 0;\n    // Boletos de la loteria generadors\n    uint [] boletosComprados;\n\n    // Compra de boletos de loteria\n    function compraBoleto(uint _numBoletos) public {\n        // Precio total de los boletos a comprar\n        uint precioTotal = _numBoletos*precioBoleto;\n        // Verificacion de los tokens del usuario\n        require(precioTotal <= balanceTokens(msg.sender), \n                \"No tienes tokens suficientes\");\n        // Transferencia de tokens del usuario al Smart Contract\n        _transfer(msg.sender, address(this), precioTotal);\n        /* Recoge la marca de tiempo (block.timestamp), msg.sender y un Nonce\n        (un numero que solo se utiliza una vez, para que no ejecutemos dos veces la misma \n        funcion de hash con los mismos parametros de entrada) en incremento.\n        Se utiliza 'keccak256 'para convertir estas entradas a un hash aleatorio, \n        convertir ese hash a un uint y luego utilizamos % 10000 para tomar los ultimos 4 digitos,\n        dando un valor aleatorio entre 0 - 999. */\n        for (uint i = 0; i < _numBoletos; i++){\n            uint random = uint(keccak256(abi.encodePacked(block.timestamp, msg.sender, randNonce))) % 10000;\n            randNonce++;\n            // Almacenamiento de los datos del boletos enlazados al usuario\n            idPersona_boletos[msg.sender].push(random);\n            // Almacenamiento de los datos de los boletos\n            boletosComprados.push(random);\n            // Asignacion del ADN del boleto para la generacion de un ganador\n            ADNBoleto[random] = msg.sender;\n            // Creacion de un nuevo NFT para el numero de boleto\n            boletosNFTs(usuario_contract[msg.sender]).mintBoleto(msg.sender, random);\n        }\n    }\n\n    // Visualizacion de los boletos del usuario\n    function tusBoletos(address _propietario) public view returns(uint [] memory){\n        return idPersona_boletos[_propietario];\n    }\n\n    // Generacion del ganador de la loteria\n    function generarGanador() public onlyOwner {\n        // Declaracion de la longitud del array\n        uint longitud = boletosComprados.length;\n        // Verificacion de la compra de al menos de 1 boleto\n        require(longitud > 0, \"No hay boletos comprados\");\n        // Eleccion aleatoria de un numero entre: [0-Longitud]\n        uint random = uint(uint(keccak256(abi.encodePacked(block.timestamp))) % longitud);\n        // Seleccion del numero aleatorio\n        uint eleccion = boletosComprados[random];\n        // Direccion del ganador de la loteria\n        ganador = ADNBoleto[eleccion];\n        // Envio del 95% del premio de loteria al ganador\n        payable(ganador).transfer(address(this).balance * 90 / 100);\n        // Envio del 10% del premio de loteria al owner\n        payable(owner()).transfer(address(this).balance * 100 / 100);\n      }\n\n}\n\n// Smart Contract de NFTs\ncontract mainERC721 is ERC721 {\n\n    address public direccionLoteria;\n    constructor() ERC721(\"Lottery Plus\", \"LTP\"){\n        direccionLoteria = msg.sender;\n    }\n\n    // Creacion de NFTs\n    function safeMint(address _propietario, uint256 _boleto) public {\n        require(msg.sender == loteria(direccionLoteria).usersInfo(_propietario),\n                \"No tienes permisos para ejecutar esta funcion\");\n        _safeMint(_propietario, _boleto);\n    }\n\n}\n\ncontract boletosNFTs {\n\n    // Datos relevantes del propietario \n    struct Owner {\n        address direccionPropietario;\n        address contratoPadre;\n        address contratoNFT;\n        address contratoUsuario;\n    }\n    // Estructura de datos de tipo Owner\n    Owner public propietario;\n\n    // Constructor del Smart Contract (hijo)\n    constructor(address _propietario, address _contratoPadre, address _contratoNFT){\n        propietario = Owner(_propietario, \n                            _contratoPadre,\n                            _contratoNFT, \n                            address(this));\n    }\n\n    // Conversion de los numeros de los boletos de loteria\n    function mintBoleto(address _propietario, uint _boleto) public {\n        require(msg.sender == propietario.contratoPadre, \n                \"No tienes permisos para ejecutar esta funcion\");\n        mainERC721(propietario.contratoNFT).safeMint(_propietario, _boleto);\n    }\n\n}\n",
  "sourcePath": "C:\\Users\\alipcHome\\Desktop\\proyectosnuevos\\lotterylpus\\src\\contracts\\loteria.sol",
  "compiler": {
    "name": "solc",
    "version": "0.8.4+commit.c7e474f2.Emscripten.clang"
  },
  "schemaVersion": "3.4.2",
  "updatedAt": "2023-01-09T12:43:36.821Z",
  "networkType": "ethereum",
  "devdoc": {
    "kind": "dev",
    "methods": {
      "allowance(address,address)": {
        "details": "See {IERC20-allowance}."
      },
      "approve(address,uint256)": {
        "details": "See {IERC20-approve}. NOTE: If `amount` is the maximum `uint256`, the allowance is not updated on `transferFrom`. This is semantically equivalent to an infinite approval. Requirements: - `spender` cannot be the zero address."
      },
      "balanceOf(address)": {
        "details": "See {IERC20-balanceOf}."
      },
      "decimals()": {
        "details": "Returns the number of decimals used to get its user representation. For example, if `decimals` equals `2`, a balance of `505` tokens should be displayed to a user as `5.05` (`505 / 10 ** 2`). Tokens usually opt for a value of 18, imitating the relationship between Ether and Wei. This is the value {ERC20} uses, unless this function is overridden; NOTE: This information is only used for _display_ purposes: it in no way affects any of the arithmetic of the contract, including {IERC20-balanceOf} and {IERC20-transfer}."
      },
      "decreaseAllowance(address,uint256)": {
        "details": "Atomically decreases the allowance granted to `spender` by the caller. This is an alternative to {approve} that can be used as a mitigation for problems described in {IERC20-approve}. Emits an {Approval} event indicating the updated allowance. Requirements: - `spender` cannot be the zero address. - `spender` must have allowance for the caller of at least `subtractedValue`."
      },
      "increaseAllowance(address,uint256)": {
        "details": "Atomically increases the allowance granted to `spender` by the caller. This is an alternative to {approve} that can be used as a mitigation for problems described in {IERC20-approve}. Emits an {Approval} event indicating the updated allowance. Requirements: - `spender` cannot be the zero address."
      },
      "name()": {
        "details": "Returns the name of the token."
      },
      "owner()": {
        "details": "Returns the address of the current owner."
      },
      "renounceOwnership()": {
        "details": "Leaves the contract without owner. It will not be possible to call `onlyOwner` functions anymore. Can only be called by the current owner. NOTE: Renouncing ownership will leave the contract without an owner, thereby removing any functionality that is only available to the owner."
      },
      "symbol()": {
        "details": "Returns the symbol of the token, usually a shorter version of the name."
      },
      "totalSupply()": {
        "details": "See {IERC20-totalSupply}."
      },
      "transfer(address,uint256)": {
        "details": "See {IERC20-transfer}. Requirements: - `to` cannot be the zero address. - the caller must have a balance of at least `amount`."
      },
      "transferFrom(address,address,uint256)": {
        "details": "See {IERC20-transferFrom}. Emits an {Approval} event indicating the updated allowance. This is not required by the EIP. See the note at the beginning of {ERC20}. NOTE: Does not update the allowance if the current allowance is the maximum `uint256`. Requirements: - `from` and `to` cannot be the zero address. - `from` must have a balance of at least `amount`. - the caller must have allowance for ``from``'s tokens of at least `amount`."
      },
      "transferOwnership(address)": {
        "details": "Transfers ownership of the contract to a new account (`newOwner`). Can only be called by the current owner."
      }
    },
    "version": 1
  },
  "userdoc": {
    "kind": "user",
    "methods": {},
    "version": 1
  }
}